{
  "_format": "hh-sol-artifact-1",
  "contractName": "ProjectCoinFactory",
  "sourceName": "contracts/ProjectCoinFactory.sol",
  "abi": [
    {
      "inputs": [
        {
          "internalType": "address",
          "name": "_defaultTreasury",
          "type": "address"
        },
        {
          "internalType": "address",
          "name": "_defaultRewardPool",
          "type": "address"
        },
        {
          "internalType": "address",
          "name": "_initialOwner",
          "type": "address"
        }
      ],
      "stateMutability": "nonpayable",
      "type": "constructor"
    },
    {
      "inputs": [
        {
          "internalType": "address",
          "name": "owner",
          "type": "address"
        }
      ],
      "name": "OwnableInvalidOwner",
      "type": "error"
    },
    {
      "inputs": [
        {
          "internalType": "address",
          "name": "account",
          "type": "address"
        }
      ],
      "name": "OwnableUnauthorizedAccount",
      "type": "error"
    },
    {
      "inputs": [],
      "name": "ReentrancyGuardReentrantCall",
      "type": "error"
    },
    {
      "anonymous": false,
      "inputs": [
        {
          "indexed": false,
          "internalType": "uint256",
          "name": "newFee",
          "type": "uint256"
        }
      ],
      "name": "CreationFeeUpdated",
      "type": "event"
    },
    {
      "anonymous": false,
      "inputs": [
        {
          "indexed": false,
          "internalType": "address",
          "name": "treasury",
          "type": "address"
        },
        {
          "indexed": false,
          "internalType": "address",
          "name": "rewardPool",
          "type": "address"
        }
      ],
      "name": "DefaultAddressesUpdated",
      "type": "event"
    },
    {
      "anonymous": false,
      "inputs": [
        {
          "indexed": true,
          "internalType": "address",
          "name": "previousOwner",
          "type": "address"
        },
        {
          "indexed": true,
          "internalType": "address",
          "name": "newOwner",
          "type": "address"
        }
      ],
      "name": "OwnershipTransferred",
      "type": "event"
    },
    {
      "anonymous": false,
      "inputs": [
        {
          "indexed": true,
          "internalType": "address",
          "name": "tokenAddress",
          "type": "address"
        },
        {
          "indexed": true,
          "internalType": "string",
          "name": "repoKey",
          "type": "string"
        },
        {
          "indexed": true,
          "internalType": "address",
          "name": "creator",
          "type": "address"
        },
        {
          "indexed": false,
          "internalType": "string",
          "name": "githubOwner",
          "type": "string"
        },
        {
          "indexed": false,
          "internalType": "string",
          "name": "githubRepo",
          "type": "string"
        },
        {
          "indexed": false,
          "internalType": "string",
          "name": "name",
          "type": "string"
        },
        {
          "indexed": false,
          "internalType": "string",
          "name": "symbol",
          "type": "string"
        }
      ],
      "name": "ProjectCoinCreated",
      "type": "event"
    },
    {
      "anonymous": false,
      "inputs": [
        {
          "indexed": true,
          "internalType": "address",
          "name": "tokenAddress",
          "type": "address"
        },
        {
          "indexed": false,
          "internalType": "string",
          "name": "reason",
          "type": "string"
        }
      ],
      "name": "ProjectDeactivated",
      "type": "event"
    },
    {
      "inputs": [
        {
          "internalType": "uint256",
          "name": "",
          "type": "uint256"
        }
      ],
      "name": "allRepoKeys",
      "outputs": [
        {
          "internalType": "string",
          "name": "",
          "type": "string"
        }
      ],
      "stateMutability": "view",
      "type": "function"
    },
    {
      "inputs": [
        {
          "internalType": "uint256",
          "name": "",
          "type": "uint256"
        }
      ],
      "name": "allTokens",
      "outputs": [
        {
          "internalType": "address",
          "name": "",
          "type": "address"
        }
      ],
      "stateMutability": "view",
      "type": "function"
    },
    {
      "inputs": [
        {
          "internalType": "string",
          "name": "_name",
          "type": "string"
        },
        {
          "internalType": "string",
          "name": "_symbol",
          "type": "string"
        },
        {
          "internalType": "string",
          "name": "_githubOwner",
          "type": "string"
        },
        {
          "internalType": "string",
          "name": "_githubRepo",
          "type": "string"
        },
        {
          "internalType": "address",
          "name": "_treasury",
          "type": "address"
        },
        {
          "internalType": "address",
          "name": "_rewardPool",
          "type": "address"
        }
      ],
      "name": "createProjectCoin",
      "outputs": [
        {
          "internalType": "address",
          "name": "",
          "type": "address"
        }
      ],
      "stateMutability": "payable",
      "type": "function"
    },
    {
      "inputs": [],
      "name": "creationFee",
      "outputs": [
        {
          "internalType": "uint256",
          "name": "",
          "type": "uint256"
        }
      ],
      "stateMutability": "view",
      "type": "function"
    },
    {
      "inputs": [],
      "name": "creationPaused",
      "outputs": [
        {
          "internalType": "bool",
          "name": "",
          "type": "bool"
        }
      ],
      "stateMutability": "view",
      "type": "function"
    },
    {
      "inputs": [
        {
          "internalType": "address",
          "name": "",
          "type": "address"
        },
        {
          "internalType": "uint256",
          "name": "",
          "type": "uint256"
        }
      ],
      "name": "creatorToTokens",
      "outputs": [
        {
          "internalType": "address",
          "name": "",
          "type": "address"
        }
      ],
      "stateMutability": "view",
      "type": "function"
    },
    {
      "inputs": [
        {
          "internalType": "address",
          "name": "_tokenAddress",
          "type": "address"
        },
        {
          "internalType": "string",
          "name": "_reason",
          "type": "string"
        }
      ],
      "name": "deactivateProject",
      "outputs": [],
      "stateMutability": "nonpayable",
      "type": "function"
    },
    {
      "inputs": [],
      "name": "defaultRewardPool",
      "outputs": [
        {
          "internalType": "address",
          "name": "",
          "type": "address"
        }
      ],
      "stateMutability": "view",
      "type": "function"
    },
    {
      "inputs": [],
      "name": "defaultTreasury",
      "outputs": [
        {
          "internalType": "address",
          "name": "",
          "type": "address"
        }
      ],
      "stateMutability": "view",
      "type": "function"
    },
    {
      "inputs": [
        {
          "internalType": "uint256",
          "name": "_offset",
          "type": "uint256"
        },
        {
          "internalType": "uint256",
          "name": "_limit",
          "type": "uint256"
        }
      ],
      "name": "getAllProjects",
      "outputs": [
        {
          "components": [
            {
              "internalType": "address",
              "name": "tokenAddress",
              "type": "address"
            },
            {
              "internalType": "string",
              "name": "name",
              "type": "string"
            },
            {
              "internalType": "string",
              "name": "symbol",
              "type": "string"
            },
            {
              "internalType": "string",
              "name": "githubOwner",
              "type": "string"
            },
            {
              "internalType": "string",
              "name": "githubRepo",
              "type": "string"
            },
            {
              "internalType": "address",
              "name": "creator",
              "type": "address"
            },
            {
              "internalType": "uint256",
              "name": "createdAt",
              "type": "uint256"
            },
            {
              "internalType": "bool",
              "name": "isActive",
              "type": "bool"
            }
          ],
          "internalType": "struct ProjectCoinFactory.ProjectInfo[]",
          "name": "",
          "type": "tuple[]"
        },
        {
          "internalType": "uint256",
          "name": "",
          "type": "uint256"
        }
      ],
      "stateMutability": "view",
      "type": "function"
    },
    {
      "inputs": [
        {
          "internalType": "address",
          "name": "_tokenAddress",
          "type": "address"
        }
      ],
      "name": "getProjectInfo",
      "outputs": [
        {
          "components": [
            {
              "internalType": "address",
              "name": "tokenAddress",
              "type": "address"
            },
            {
              "internalType": "string",
              "name": "name",
              "type": "string"
            },
            {
              "internalType": "string",
              "name": "symbol",
              "type": "string"
            },
            {
              "internalType": "string",
              "name": "githubOwner",
              "type": "string"
            },
            {
              "internalType": "string",
              "name": "githubRepo",
              "type": "string"
            },
            {
              "internalType": "address",
              "name": "creator",
              "type": "address"
            },
            {
              "internalType": "uint256",
              "name": "createdAt",
              "type": "uint256"
            },
            {
              "internalType": "bool",
              "name": "isActive",
              "type": "bool"
            }
          ],
          "internalType": "struct ProjectCoinFactory.ProjectInfo",
          "name": "",
          "type": "tuple"
        }
      ],
      "stateMutability": "view",
      "type": "function"
    },
    {
      "inputs": [
        {
          "internalType": "uint256",
          "name": "_index",
          "type": "uint256"
        }
      ],
      "name": "getRepoKeyByIndex",
      "outputs": [
        {
          "internalType": "string",
          "name": "",
          "type": "string"
        }
      ],
      "stateMutability": "view",
      "type": "function"
    },
    {
      "inputs": [
        {
          "internalType": "string",
          "name": "_githubOwner",
          "type": "string"
        },
        {
          "internalType": "string",
          "name": "_githubRepo",
          "type": "string"
        }
      ],
      "name": "getTokenByRepo",
      "outputs": [
        {
          "internalType": "address",
          "name": "",
          "type": "address"
        }
      ],
      "stateMutability": "view",
      "type": "function"
    },
    {
      "inputs": [
        {
          "internalType": "address",
          "name": "_creator",
          "type": "address"
        }
      ],
      "name": "getTokensByCreator",
      "outputs": [
        {
          "internalType": "address[]",
          "name": "",
          "type": "address[]"
        }
      ],
      "stateMutability": "view",
      "type": "function"
    },
    {
      "inputs": [],
      "name": "getTotalTokensCount",
      "outputs": [
        {
          "internalType": "uint256",
          "name": "",
          "type": "uint256"
        }
      ],
      "stateMutability": "view",
      "type": "function"
    },
    {
      "inputs": [
        {
          "internalType": "string",
          "name": "_githubOwner",
          "type": "string"
        },
        {
          "internalType": "string",
          "name": "_githubRepo",
          "type": "string"
        }
      ],
      "name": "hasToken",
      "outputs": [
        {
          "internalType": "bool",
          "name": "",
          "type": "bool"
        }
      ],
      "stateMutability": "view",
      "type": "function"
    },
    {
      "inputs": [],
      "name": "owner",
      "outputs": [
        {
          "internalType": "address",
          "name": "",
          "type": "address"
        }
      ],
      "stateMutability": "view",
      "type": "function"
    },
    {
      "inputs": [],
      "name": "renounceOwnership",
      "outputs": [],
      "stateMutability": "nonpayable",
      "type": "function"
    },
    {
      "inputs": [
        {
          "internalType": "string",
          "name": "",
          "type": "string"
        },
        {
          "internalType": "string",
          "name": "",
          "type": "string"
        }
      ],
      "name": "repoToToken",
      "outputs": [
        {
          "internalType": "address",
          "name": "",
          "type": "address"
        }
      ],
      "stateMutability": "view",
      "type": "function"
    },
    {
      "inputs": [
        {
          "internalType": "string",
          "name": "_githubOwner",
          "type": "string"
        }
      ],
      "name": "searchByOwner",
      "outputs": [
        {
          "components": [
            {
              "internalType": "address",
              "name": "tokenAddress",
              "type": "address"
            },
            {
              "internalType": "string",
              "name": "name",
              "type": "string"
            },
            {
              "internalType": "string",
              "name": "symbol",
              "type": "string"
            },
            {
              "internalType": "string",
              "name": "githubOwner",
              "type": "string"
            },
            {
              "internalType": "string",
              "name": "githubRepo",
              "type": "string"
            },
            {
              "internalType": "address",
              "name": "creator",
              "type": "address"
            },
            {
              "internalType": "uint256",
              "name": "createdAt",
              "type": "uint256"
            },
            {
              "internalType": "bool",
              "name": "isActive",
              "type": "bool"
            }
          ],
          "internalType": "struct ProjectCoinFactory.ProjectInfo[]",
          "name": "",
          "type": "tuple[]"
        }
      ],
      "stateMutability": "view",
      "type": "function"
    },
    {
      "inputs": [
        {
          "internalType": "bool",
          "name": "_paused",
          "type": "bool"
        }
      ],
      "name": "setCreationPaused",
      "outputs": [],
      "stateMutability": "nonpayable",
      "type": "function"
    },
    {
      "inputs": [
        {
          "internalType": "address",
          "name": "",
          "type": "address"
        }
      ],
      "name": "tokenToProject",
      "outputs": [
        {
          "internalType": "address",
          "name": "tokenAddress",
          "type": "address"
        },
        {
          "internalType": "string",
          "name": "name",
          "type": "string"
        },
        {
          "internalType": "string",
          "name": "symbol",
          "type": "string"
        },
        {
          "internalType": "string",
          "name": "githubOwner",
          "type": "string"
        },
        {
          "internalType": "string",
          "name": "githubRepo",
          "type": "string"
        },
        {
          "internalType": "address",
          "name": "creator",
          "type": "address"
        },
        {
          "internalType": "uint256",
          "name": "createdAt",
          "type": "uint256"
        },
        {
          "internalType": "bool",
          "name": "isActive",
          "type": "bool"
        }
      ],
      "stateMutability": "view",
      "type": "function"
    },
    {
      "inputs": [
        {
          "internalType": "address",
          "name": "newOwner",
          "type": "address"
        }
      ],
      "name": "transferOwnership",
      "outputs": [],
      "stateMutability": "nonpayable",
      "type": "function"
    },
    {
      "inputs": [
        {
          "internalType": "uint256",
          "name": "_newFee",
          "type": "uint256"
        }
      ],
      "name": "updateCreationFee",
      "outputs": [],
      "stateMutability": "nonpayable",
      "type": "function"
    },
    {
      "inputs": [
        {
          "internalType": "address",
          "name": "_treasury",
          "type": "address"
        },
        {
          "internalType": "address",
          "name": "_rewardPool",
          "type": "address"
        }
      ],
      "name": "updateDefaultAddresses",
      "outputs": [],
      "stateMutability": "nonpayable",
      "type": "function"
    },
    {
      "inputs": [],
      "name": "withdrawFees",
      "outputs": [],
      "stateMutability": "nonpayable",
      "type": "function"
    }
  ],
  "bytecode": "0x6080604052662386f26fc10000600955600a805460ff1916905534801561002557600080fd5b506040516155f93803806155f9833981016040819052610044916101d7565b806001600160a01b03811661007457604051631e4fbdf760e01b8152600060048201526024015b60405180910390fd5b61007d8161016b565b50600180556001600160a01b0383166100d85760405162461bcd60e51b815260206004820152601f60248201527f44656661756c742074726561737572792063616e6e6f74206265207a65726f00604482015260640161006b565b6001600160a01b0382166101395760405162461bcd60e51b815260206004820152602260248201527f44656661756c742072657761726420706f6f6c2063616e6e6f74206265207a65604482015261726f60f01b606482015260840161006b565b50600780546001600160a01b039384166001600160a01b0319918216179091556008805492909316911617905561021a565b600080546001600160a01b038381166001600160a01b0319831681178455604051919092169283917f8be0079c531659141344cd1fd0a4f28419497f9722a3daafe3b4186f6b6457e09190a35050565b80516001600160a01b03811681146101d257600080fd5b919050565b6000806000606084860312156101ec57600080fd5b6101f5846101bb565b9250610203602085016101bb565b9150610211604085016101bb565b90509250925092565b6153d0806102296000396000f3fe6080604052600436106101815760003560e01c80638da5cb5b116100d1578063deb569ba1161008a578063ef86c5a311610064578063ef86c5a3146104c6578063f2fde38b146104e6578063fd01a7fd14610506578063fe3d65a91461053357600080fd5b8063deb569ba14610473578063e2c11c2614610486578063eb62e3c2146104a657600080fd5b80638da5cb5b146103a4578063a21d131c146103c2578063bd12dd64146103e2578063cfa1fff3146103fc578063d5c7127514610430578063dce0b4e41461045d57600080fd5b806347ee45b91161013e578063679f946911610118578063679f9469146103125780636fa237951461033f578063715018a61461035f5780637487b21f1461037457600080fd5b806347ee45b9146102a55780634d7d73f8146102d2578063634282af146102f257600080fd5b80630b2f6725146101865780630ed60abc146101aa578063189c95f1146101cc5780631d6aad45146101fa5780634021adb614610270578063476343ee14610290575b600080fd5b34801561019257600080fd5b506005545b6040519081526020015b60405180910390f35b3480156101b657600080fd5b506101ca6101c53660046121f4565b610553565b005b3480156101d857600080fd5b506101ec6101e7366004612241565b61061f565b6040516101a19291906123c1565b34801561020657600080fd5b506102586102153660046123e3565b815160208184018101805160028252928201948201949094209190935281518083018401805192815290840192909301919091209152546001600160a01b031681565b6040516001600160a01b0390911681526020016101a1565b34801561027c57600080fd5b50600754610258906001600160a01b031681565b34801561029c57600080fd5b506101ca6106a1565b3480156102b157600080fd5b506102c56102c0366004612434565b61072a565b6040516101a1919061244f565b3480156102de57600080fd5b506102586102ed366004612462565b6109e1565b3480156102fe57600080fd5b5061025861030d36600461248c565b610a19565b34801561031e57600080fd5b5061033261032d36600461248c565b610a43565b6040516101a191906124a5565b34801561034b57600080fd5b506101ca61035a36600461248c565b610b3a565b34801561036b57600080fd5b506101ca610b7d565b34801561038057600080fd5b5061039461038f3660046123e3565b610b91565b60405190151581526020016101a1565b3480156103b057600080fd5b506000546001600160a01b0316610258565b3480156103ce57600080fd5b506101ca6103dd3660046124b8565b610bed565b3480156103ee57600080fd5b50600a546103949060ff1681565b34801561040857600080fd5b5061041c610417366004612434565b610c08565b6040516101a19897969594939291906124da565b34801561043c57600080fd5b5061045061044b366004612434565b610e82565b6040516101a19190612565565b34801561046957600080fd5b5061019760095481565b6102586104813660046125b1565b610ef7565b34801561049257600080fd5b506103326104a136600461248c565b6111e5565b3480156104b257600080fd5b50600854610258906001600160a01b031681565b3480156104d257600080fd5b506102586104e13660046123e3565b611291565b3480156104f257600080fd5b506101ca610501366004612434565b6112e0565b34801561051257600080fd5b5061052661052136600461268d565b61131e565b6040516101a191906126c9565b34801561053f57600080fd5b506101ca61054e3660046126dc565b61137f565b61055b6114a1565b6001600160a01b03828116600090815260036020526040902054166105c05760405162461bcd60e51b8152602060048201526016602482015275141c9bda9958dd08191bd95cc81b9bdd08195e1a5cdd60521b60448201526064015b60405180910390fd5b6001600160a01b03821660008181526003602052604090819020600701805460ff19169055517ff0375d1239e2d64d49f8ae1333b1318269600394222425d2e3e6bc73f759b7c5906106139084906124a5565b60405180910390a25050565b600554606090600090841061066d5760405162461bcd60e51b81526020600482015260146024820152734f6666736574206f7574206f6620626f756e647360601b60448201526064016105b7565b60006106798486612725565b60055490915081111561068b57506005545b61069585826114ce565b92509250509250929050565b6106a96114a1565b47806106ed5760405162461bcd60e51b81526020600482015260136024820152724e6f206665657320746f20776974686472617760681b60448201526064016105b7565b600080546040516001600160a01b039091169183156108fc02918491818181858888f19350505050158015610726573d6000803e3d6000fd5b5050565b6107326120cf565b6001600160a01b0380831660009081526003602090815260409182902082516101008101909352805490931682526001830180549293929184019161077690612738565b80601f01602080910402602001604051908101604052809291908181526020018280546107a290612738565b80156107ef5780601f106107c4576101008083540402835291602001916107ef565b820191906000526020600020905b8154815290600101906020018083116107d257829003601f168201915b5050505050815260200160028201805461080890612738565b80601f016020809104026020016040519081016040528092919081815260200182805461083490612738565b80156108815780601f1061085657610100808354040283529160200191610881565b820191906000526020600020905b81548152906001019060200180831161086457829003601f168201915b5050505050815260200160038201805461089a90612738565b80601f01602080910402602001604051908101604052809291908181526020018280546108c690612738565b80156109135780601f106108e857610100808354040283529160200191610913565b820191906000526020600020905b8154815290600101906020018083116108f657829003601f168201915b5050505050815260200160048201805461092c90612738565b80601f016020809104026020016040519081016040528092919081815260200182805461095890612738565b80156109a55780601f1061097a576101008083540402835291602001916109a5565b820191906000526020600020905b81548152906001019060200180831161098857829003601f168201915b505050918352505060058201546001600160a01b031660208201526006820154604082015260079091015460ff16151560609091015292915050565b600460205281600052604060002081815481106109fd57600080fd5b6000918252602090912001546001600160a01b03169150829050565b60058181548110610a2957600080fd5b6000918252602090912001546001600160a01b0316905081565b6006546060908210610a8d5760405162461bcd60e51b8152602060048201526013602482015272496e646578206f7574206f6620626f756e647360681b60448201526064016105b7565b60068281548110610aa057610aa0612772565b906000526020600020018054610ab590612738565b80601f0160208091040260200160405190810160405280929190818152602001828054610ae190612738565b8015610b2e5780601f10610b0357610100808354040283529160200191610b2e565b820191906000526020600020905b815481529060010190602001808311610b1157829003601f168201915b50505050509050919050565b610b426114a1565b60098190556040518181527f88a973fd5506071e0cf878b30898776c47d5250a7ee1e6ee0b36df3b03c7c16a9060200160405180910390a150565b610b856114a1565b610b8f6000611865565b565b6000806001600160a01b0316600284604051610bad9190612788565b908152602001604051809103902083604051610bc99190612788565b908152604051908190036020019020546001600160a01b0316141590505b92915050565b610bf56114a1565b600a805460ff1916911515919091179055565b600360205260009081526040902080546001820180546001600160a01b039092169291610c3490612738565b80601f0160208091040260200160405190810160405280929190818152602001828054610c6090612738565b8015610cad5780601f10610c8257610100808354040283529160200191610cad565b820191906000526020600020905b815481529060010190602001808311610c9057829003601f168201915b505050505090806002018054610cc290612738565b80601f0160208091040260200160405190810160405280929190818152602001828054610cee90612738565b8015610d3b5780601f10610d1057610100808354040283529160200191610d3b565b820191906000526020600020905b815481529060010190602001808311610d1e57829003601f168201915b505050505090806003018054610d5090612738565b80601f0160208091040260200160405190810160405280929190818152602001828054610d7c90612738565b8015610dc95780601f10610d9e57610100808354040283529160200191610dc9565b820191906000526020600020905b815481529060010190602001808311610dac57829003601f168201915b505050505090806004018054610dde90612738565b80601f0160208091040260200160405190810160405280929190818152602001828054610e0a90612738565b8015610e575780601f10610e2c57610100808354040283529160200191610e57565b820191906000526020600020905b815481529060010190602001808311610e3a57829003601f168201915b505050506005830154600684015460079094015492936001600160a01b039091169290915060ff1688565b6001600160a01b038116600090815260046020908152604091829020805483518184028101840190945280845260609392830182828015610b2e57602002820191906000526020600020905b81546001600160a01b03168152600190910190602001808311610ece5750505050509050919050565b6000610f016118b5565b600a5460ff1615610f545760405162461bcd60e51b815260206004820152601c60248201527f4372656174696f6e2069732063757272656e746c79207061757365640000000060448201526064016105b7565b84846000825111610fa75760405162461bcd60e51b815260206004820152601c60248201527f476974487562206f776e65722063616e6e6f7420626520656d7074790000000060448201526064016105b7565b6000815111610ff85760405162461bcd60e51b815260206004820152601b60248201527f476974487562207265706f2063616e6e6f7420626520656d707479000000000060448201526064016105b7565b60006001600160a01b03166002836040516110139190612788565b90815260200160405180910390208260405161102f9190612788565b908152604051908190036020019020546001600160a01b0316146110a65760405162461bcd60e51b815260206004820152602860248201527f546f6b656e20616c72656164792065786973747320666f722074686973207265604482015267706f7369746f727960c01b60648201526084016105b7565b6009543410156110f85760405162461bcd60e51b815260206004820152601960248201527f496e73756666696369656e74206372656174696f6e206665650000000000000060448201526064016105b7565b60008951116111495760405162461bcd60e51b815260206004820152601a60248201527f546f6b656e206e616d652063616e6e6f7420626520656d70747900000000000060448201526064016105b7565b600088511161119a5760405162461bcd60e51b815260206004820152601c60248201527f546f6b656e2073796d626f6c2063616e6e6f7420626520656d7074790000000060448201526064016105b7565b60006111aa8a8a8a8a8a8a6118df565b90506111b9818b8b8b8b6118fa565b6111c1611afd565b6111ce818b8b8b8b611b42565b925050506111db60018055565b9695505050505050565b600681815481106111f557600080fd5b90600052602060002001600091509050805461121090612738565b80601f016020809104026020016040519081016040528092919081815260200182805461123c90612738565b80156112895780601f1061125e57610100808354040283529160200191611289565b820191906000526020600020905b81548152906001019060200180831161126c57829003601f168201915b505050505081565b60006002836040516112a39190612788565b9081526020016040518091039020826040516112bf9190612788565b908152604051908190036020019020546001600160a01b0316905092915050565b6112e86114a1565b6001600160a01b03811661131257604051631e4fbdf760e01b8152600060048201526024016105b7565b61131b81611865565b50565b6060600061132b83611bce565b90508060000361136e576040805160008082526020820190925290611366565b6113536120cf565b81526020019060019003908161134b5790505b509392505050565b6113788382611c76565b9392505050565b6113876114a1565b6001600160a01b0382166113dd5760405162461bcd60e51b815260206004820152601760248201527f54726561737572792063616e6e6f74206265207a65726f00000000000000000060448201526064016105b7565b6001600160a01b0381166114335760405162461bcd60e51b815260206004820152601a60248201527f52657761726420706f6f6c2063616e6e6f74206265207a65726f00000000000060448201526064016105b7565b600780546001600160a01b038481166001600160a01b03199283168117909355600880549185169190921681179091556040805192835260208301919091527fa415644740d91fc0ccfcb4e3df3e6570e367da3a8dcfa644528da271724bb8ba910160405180910390a15050565b6000546001600160a01b03163314610b8f5760405163118cdaa760e01b81523360048201526024016105b7565b60606000806114dd85856127a4565b6001600160401b038111156114f4576114f4612151565b60405190808252806020026020018201604052801561152d57816020015b61151a6120cf565b8152602001906001900390816115125790505b5090506000855b85811015611854576000600360006005848154811061155557611555612772565b60009182526020808320909101546001600160a01b031683528201929092526040019020600781015490915060ff161561184b5760408051610100810190915281546001600160a01b03168152600182018054839160208401916115b890612738565b80601f01602080910402602001604051908101604052809291908181526020018280546115e490612738565b80156116315780601f1061160657610100808354040283529160200191611631565b820191906000526020600020905b81548152906001019060200180831161161457829003601f168201915b5050505050815260200160028201805461164a90612738565b80601f016020809104026020016040519081016040528092919081815260200182805461167690612738565b80156116c35780601f10611698576101008083540402835291602001916116c3565b820191906000526020600020905b8154815290600101906020018083116116a657829003601f168201915b505050505081526020016003820180546116dc90612738565b80601f016020809104026020016040519081016040528092919081815260200182805461170890612738565b80156117555780601f1061172a57610100808354040283529160200191611755565b820191906000526020600020905b81548152906001019060200180831161173857829003601f168201915b5050505050815260200160048201805461176e90612738565b80601f016020809104026020016040519081016040528092919081815260200182805461179a90612738565b80156117e75780601f106117bc576101008083540402835291602001916117e7565b820191906000526020600020905b8154815290600101906020018083116117ca57829003601f168201915b505050918352505060058201546001600160a01b031660208201526006820154604082015260079091015460ff161515606090910152845185908590811061183157611831612772565b60200260200101819052508280611847906127b7565b9350505b50600101611534565b508152600554909590945092505050565b600080546001600160a01b038381166001600160a01b0319831681178455604051919092169283917f8be0079c531659141344cd1fd0a4f28419497f9722a3daafe3b4186f6b6457e09190a35050565b6002600154036118d857604051633ee5aeb560e01b815260040160405180910390fd5b6002600155565b60006118ef878787878787612040565b979650505050505050565b8460028360405161190b9190612788565b9081526020016040518091039020826040516119279190612788565b908152604080516020928190038301812080546001600160a01b03199081166001600160a01b0396871617909155610100820183528985168083528483018a81528385018a905260608401899052608084018890523360a08501524260c0850152600160e0850181905260009283526003909652939020825181549092169190951617845590519092918201906119be908261281f565b50604082015160028201906119d3908261281f565b50606082015160038201906119e8908261281f565b50608082015160048201906119fd908261281f565b5060a0820151600582810180546001600160a01b03199081166001600160a01b039485161790915560c085015160068086019190915560e0909501516007909401805460ff1916941515949094179093553360009081526004602090815260408083208054600181810183559185528385200180548816968e16968717905584549081018555939092527f036b6384b5eca791c62761152d0c79bb0604c104a5fb6f4eb0703f3154bb3db0909201805490941690921790925551611ac59185918591016128dd565b60408051601f1981840301815291905281546001810183556000928352602090922090910190611af5908261281f565b505050505050565b600954341115610b8f5760095433906108fc90611b1a90346127a4565b6040518115909202916000818181858888f1935050505015801561131b573d6000803e3d6000fd5b60008282604051602001611b579291906128dd565b60408051601f198184030181529082905291503390611b77908390612788565b6040518091039020876001600160a01b03167f2e4fadc43d403a41d689cc3d07a4dcccfbf16eb94bfb0d1878440ec74e28c2bb86868a8a604051611bbe9493929190612919565b60405180910390a4505050505050565b805160208201206000908190815b600554811015611c6d5760006003600060058481548110611bff57611bff612772565b60009182526020808320909101546001600160a01b031683528201929092526040019020600781015490915060ff168015611c5157508281600301604051611c479190612966565b6040518091039020145b15611c645783611c60816127b7565b9450505b50600101611bdc565b50909392505050565b60606000826001600160401b03811115611c9257611c92612151565b604051908082528060200260200182016040528015611ccb57816020015b611cb86120cf565b815260200190600190039081611cb05790505b5084516020860120909150600090815b60055481108015611ceb57508583105b156120355760006003600060058481548110611d0957611d09612772565b60009182526020808320909101546001600160a01b031683528201929092526040019020600781015490915060ff168015611d5b57508281600301604051611d519190612966565b6040518091039020145b156120225760408051610100810190915281546001600160a01b0316815260018201805483916020840191611d8f90612738565b80601f0160208091040260200160405190810160405280929190818152602001828054611dbb90612738565b8015611e085780601f10611ddd57610100808354040283529160200191611e08565b820191906000526020600020905b815481529060010190602001808311611deb57829003601f168201915b50505050508152602001600282018054611e2190612738565b80601f0160208091040260200160405190810160405280929190818152602001828054611e4d90612738565b8015611e9a5780601f10611e6f57610100808354040283529160200191611e9a565b820191906000526020600020905b815481529060010190602001808311611e7d57829003601f168201915b50505050508152602001600382018054611eb390612738565b80601f0160208091040260200160405190810160405280929190818152602001828054611edf90612738565b8015611f2c5780601f10611f0157610100808354040283529160200191611f2c565b820191906000526020600020905b815481529060010190602001808311611f0f57829003601f168201915b50505050508152602001600482018054611f4590612738565b80601f0160208091040260200160405190810160405280929190818152602001828054611f7190612738565b8015611fbe5780601f10611f9357610100808354040283529160200191611fbe565b820191906000526020600020905b815481529060010190602001808311611fa157829003601f168201915b505050918352505060058201546001600160a01b031660208201526006820154604082015260079091015460ff161515606090910152855186908690811061200857612008612772565b6020026020010181905250838061201e906127b7565b9450505b508061202d816127b7565b915050611cdb565b509195945050505050565b6000868686866001600160a01b038716612065576007546001600160a01b0316612067565b865b6001600160a01b038716612086576008546001600160a01b0316612088565b865b333360405161209690612128565b6120a79897969594939291906129d7565b604051809103906000f0801580156120c3573d6000803e3d6000fd5b50979650505050505050565b60405180610100016040528060006001600160a01b031681526020016060815260200160608152602001606081526020016060815260200160006001600160a01b03168152602001600081526020016000151581525090565b61293e80612a5d83390190565b80356001600160a01b038116811461214c57600080fd5b919050565b634e487b7160e01b600052604160045260246000fd5b600082601f83011261217857600080fd5b81356001600160401b0381111561219157612191612151565b604051601f8201601f19908116603f011681016001600160401b03811182821017156121bf576121bf612151565b6040528181528382016020018510156121d757600080fd5b816020850160208301376000918101602001919091529392505050565b6000806040838503121561220757600080fd5b61221083612135565b915060208301356001600160401b0381111561222b57600080fd5b61223785828601612167565b9150509250929050565b6000806040838503121561225457600080fd5b50508035926020909101359150565b60005b8381101561227e578181015183820152602001612266565b50506000910152565b6000815180845261229f816020860160208601612263565b601f01601f19169290920160200192915050565b80516001600160a01b031682526000602082015161010060208501526122dd610100850182612287565b9050604083015184820360408601526122f68282612287565b915050606083015184820360608601526123108282612287565b9150506080830151848203608086015261232a8282612287565b91505060a083015161234760a08601826001600160a01b03169052565b5060c083015160c085015260e083015161136660e086018215159052565b600082825180855260208501945060208160051b8301016020850160005b838110156123b557601f1985840301885261239f8383516122b3565b6020988901989093509190910190600101612383565b50909695505050505050565b6040815260006123d46040830185612365565b90508260208301529392505050565b600080604083850312156123f657600080fd5b82356001600160401b0381111561240c57600080fd5b61241885828601612167565b92505060208301356001600160401b0381111561222b57600080fd5b60006020828403121561244657600080fd5b61137882612135565b60208152600061137860208301846122b3565b6000806040838503121561247557600080fd5b61247e83612135565b946020939093013593505050565b60006020828403121561249e57600080fd5b5035919050565b6020815260006113786020830184612287565b6000602082840312156124ca57600080fd5b8135801515811461137857600080fd5b6001600160a01b0389168152610100602082018190526000906124ff9083018a612287565b8281036040840152612511818a612287565b905082810360608401526125258189612287565b905082810360808401526125398188612287565b6001600160a01b039690961660a0840152505060c0810192909252151560e09091015295945050505050565b602080825282518282018190526000918401906040840190835b818110156125a65783516001600160a01b031683526020938401939092019160010161257f565b509095945050505050565b60008060008060008060c087890312156125ca57600080fd5b86356001600160401b038111156125e057600080fd5b6125ec89828a01612167565b96505060208701356001600160401b0381111561260857600080fd5b61261489828a01612167565b95505060408701356001600160401b0381111561263057600080fd5b61263c89828a01612167565b94505060608701356001600160401b0381111561265857600080fd5b61266489828a01612167565b93505061267360808801612135565b915061268160a08801612135565b90509295509295509295565b60006020828403121561269f57600080fd5b81356001600160401b038111156126b557600080fd5b6126c184828501612167565b949350505050565b6020815260006113786020830184612365565b600080604083850312156126ef57600080fd5b6126f883612135565b915061270660208401612135565b90509250929050565b634e487b7160e01b600052601160045260246000fd5b80820180821115610be757610be761270f565b600181811c9082168061274c57607f821691505b60208210810361276c57634e487b7160e01b600052602260045260246000fd5b50919050565b634e487b7160e01b600052603260045260246000fd5b6000825161279a818460208701612263565b9190910192915050565b81810381811115610be757610be761270f565b6000600182016127c9576127c961270f565b5060010190565b601f82111561281a57806000526020600020601f840160051c810160208510156127f75750805b601f840160051c820191505b818110156128175760008155600101612803565b50505b505050565b81516001600160401b0381111561283857612838612151565b61284c816128468454612738565b846127d0565b6020601f82116001811461288057600083156128685750848201515b600019600385901b1c1916600184901b178455612817565b600084815260208120601f198516915b828110156128b05787850151825560209485019460019092019101612890565b50848210156128ce5786840151600019600387901b60f8161c191681555b50505050600190811b01905550565b600083516128ef818460208801612263565b602f60f81b908301908152835161290d816001840160208801612263565b01600101949350505050565b60808152600061292c6080830187612287565b828103602084015261293e8187612287565b905082810360408401526129528186612287565b905082810360608401526118ef8185612287565b600080835461297481612738565b60018216801561298b57600181146129a057612035565b60ff1983168652811515820286019350612035565b86600052602060002060005b838110156129c8578154888201526001909101906020016129ac565b50505093909301949350505050565b610100815260006129ec61010083018b612287565b82810360208401526129fe818b612287565b90508281036040840152612a12818a612287565b90508281036060840152612a268189612287565b6001600160a01b03978816608085015295871660a0840152505091841660c083015290921660e09092019190915294935050505056fe608060405266038d7ea4c68000600a55655af3107a4000600b55683635c9adc5dea00000600c5534801561003257600080fd5b5060405161293e38038061293e833981016040819052610051916105bc565b8088886003610060838261074a565b50600461006d828261074a565b5050506001600160a01b03811661009f57604051631e4fbdf760e01b8152600060048201526024015b60405180910390fd5b6100a881610327565b5060016006558551869086906101005760405162461bcd60e51b815260206004820152601c60248201527f476974487562206f776e65722063616e6e6f7420626520656d707479000000006044820152606401610096565b60008151116101515760405162461bcd60e51b815260206004820152601b60248201527f476974487562207265706f2063616e6e6f7420626520656d70747900000000006044820152606401610096565b6001600160a01b0386166101a75760405162461bcd60e51b815260206004820152601f60248201527f547265617375727920616464726573732063616e6e6f74206265207a65726f006044820152606401610096565b6001600160a01b0385166102085760405162461bcd60e51b815260206004820152602260248201527f52657761726420706f6f6c20616464726573732063616e6e6f74206265207a65604482015261726f60f01b6064820152608401610096565b6001600160a01b03841661026d5760405162461bcd60e51b815260206004820152602660248201527f50726f6a6563742063726561746f7220616464726573732063616e6e6f74206260448201526565207a65726f60d01b6064820152608401610096565b6007610279898261074a565b506008610286888261074a565b50878760405160200161029a929190610808565b604051602081830303815290604052600990816102b7919061074a565b50600d80546001600160a01b038089166001600160a01b031992831617909255600e8054888416908316179055600f8054928716929091169190911790556103098369d3c21bcecceda1000000610379565b505069d3c21bcecceda1000000601255506108949650505050505050565b600580546001600160a01b038381166001600160a01b0319831681179093556040519116919082907f8be0079c531659141344cd1fd0a4f28419497f9722a3daafe3b4186f6b6457e090600090a35050565b6001600160a01b0382166103a35760405163ec442f0560e01b815260006004820152602401610096565b6103af600083836103b3565b5050565b6001600160a01b0383166103de5780600260008282546103d3919061086d565b909155506104509050565b6001600160a01b038316600090815260208190526040902054818110156104315760405163391434e360e21b81526001600160a01b03851660048201526024810182905260448101839052606401610096565b6001600160a01b03841660009081526020819052604090209082900390555b6001600160a01b03821661046c5760028054829003905561048b565b6001600160a01b03821660009081526020819052604090208054820190555b816001600160a01b0316836001600160a01b03167fddf252ad1be2c89b69c2b068fc378daa952ba7f163c4a11628f55a4df523b3ef836040516104d091815260200190565b60405180910390a3505050565b634e487b7160e01b600052604160045260246000fd5b60005b8381101561050e5781810151838201526020016104f6565b50506000910152565b600082601f83011261052857600080fd5b81516001600160401b03811115610541576105416104dd565b604051601f8201601f19908116603f011681016001600160401b038111828210171561056f5761056f6104dd565b60405281815283820160200185101561058757600080fd5b6105988260208301602087016104f3565b949350505050565b80516001600160a01b03811681146105b757600080fd5b919050565b600080600080600080600080610100898b0312156105d957600080fd5b88516001600160401b038111156105ef57600080fd5b6105fb8b828c01610517565b60208b015190995090506001600160401b0381111561061957600080fd5b6106258b828c01610517565b60408b015190985090506001600160401b0381111561064357600080fd5b61064f8b828c01610517565b60608b015190975090506001600160401b0381111561066d57600080fd5b6106798b828c01610517565b95505061068860808a016105a0565b935061069660a08a016105a0565b92506106a460c08a016105a0565b91506106b260e08a016105a0565b90509295985092959890939650565b600181811c908216806106d557607f821691505b6020821081036106f557634e487b7160e01b600052602260045260246000fd5b50919050565b601f82111561074557806000526020600020601f840160051c810160208510156107225750805b601f840160051c820191505b81811015610742576000815560010161072e565b50505b505050565b81516001600160401b03811115610763576107636104dd565b6107778161077184546106c1565b846106fb565b6020601f8211600181146107ab57600083156107935750848201515b600019600385901b1c1916600184901b178455610742565b600084815260208120601f198516915b828110156107db57878501518255602094850194600190920191016107bb565b50848210156107f95786840151600019600387901b60f8161c191681555b50505050600190811b01905550565b7f68747470733a2f2f6769746875622e636f6d2f000000000000000000000000008152600083516108408160138501602088016104f3565b602f60f81b60139184019182015283516108618160148401602088016104f3565b01601401949350505050565b8082018082111561088e57634e487b7160e01b600052601160045260246000fd5b92915050565b61209b806108a36000396000f3fe60806040526004361061027c5760003560e01c80638ce1a4831161014f578063c2021183116100c1578063d89135cd1161007a578063d89135cd14610838578063db006a751461084e578063db2e21bc1461086e578063dd62ed3e14610883578063f1c7c2d0146108c9578063f2fde38b146108e957600080fd5b8063c202118314610717578063c37851ce1461072c578063c395f85714610742578063d035b55914610757578063d1145f101461077b578063d5fbac3a1461081857600080fd5b8063a2309ff811610113578063a2309ff814610677578063a541a2a21461068d578063a7612edf146106ad578063a9059cbb146106c2578063b9380b6b146106e2578063bf4b5ecc1461070257600080fd5b80638ce1a483146105fc5780638da5cb5b1461061157806395d89b411461062f57806397304ced146106445780639b3005651461065757600080fd5b806332cb6b0c116101f35780636817c76c116101ac5780636817c76c1461053957806370a082311461054f578063715018a61461058557806372e813c31461059a57806378e5cacc146105bc5780637f51bb1f146105dc57600080fd5b806332cb6b0c1461046b578063365016a31461048a57806342966c681461049f57806357bde446146104c157806361d027b3146104e157806366666aa91461051957600080fd5b80631a7dfa9f116102455780631a7dfa9f1461039257806323b872dd146103a757806325656307146103c75780632ff2e9dc146103f4578063313ce56714610412578063325e8c251461042e57600080fd5b80627bcd771461028157806306fdde03146103075780630807b9e214610329578063095ea7b31461034d57806318160ddd1461037d575b600080fd5b34801561028d57600080fd5b506102cf61029c366004611db1565b6010602052600090815260409020805460018201546002830154600390930154919260ff80831693610100909304169185565b6040516102fe959493929190948552921515602085015290151560408401526060830152608082015260a00190565b60405180910390f35b34801561031357600080fd5b5061031c610909565b6040516102fe9190611e10565b34801561033557600080fd5b5061033f600c5481565b6040519081526020016102fe565b34801561035957600080fd5b5061036d610368366004611e46565b61099b565b60405190151581526020016102fe565b34801561038957600080fd5b5060025461033f565b34801561039e57600080fd5b5061033f600a81565b3480156103b357600080fd5b5061036d6103c2366004611e70565b6109b5565b3480156103d357600080fd5b5061033f6103e2366004611ead565b60146020526000908152604090205481565b34801561040057600080fd5b5061033f69d3c21bcecceda100000081565b34801561041e57600080fd5b50604051601281526020016102fe565b34801561043a57600080fd5b506104436109d9565b604080519586526020860194909452928401919091526060830152608082015260a0016102fe565b34801561047757600080fd5b5061033f6a084595161401484a00000081565b34801561049657600080fd5b5061031c610a1c565b3480156104ab57600080fd5b506104bf6104ba366004611db1565b610aaa565b005b3480156104cd57600080fd5b506104bf6104dc366004611ec8565b610b5c565b3480156104ed57600080fd5b50600d54610501906001600160a01b031681565b6040516001600160a01b0390911681526020016102fe565b34801561052557600080fd5b50600e54610501906001600160a01b031681565b34801561054557600080fd5b5061033f600a5481565b34801561055b57600080fd5b5061033f61056a366004611ead565b6001600160a01b031660009081526020819052604090205490565b34801561059157600080fd5b506104bf610cc2565b3480156105a657600080fd5b506105af610cd6565b6040516102fe9190611efd565b3480156105c857600080fd5b5061033f6105d7366004611db1565b610d2d565b3480156105e857600080fd5b506104bf6105f7366004611ead565b610da6565b34801561060857600080fd5b5061033f601e81565b34801561061d57600080fd5b506005546001600160a01b0316610501565b34801561063b57600080fd5b5061031c610e26565b6104bf610652366004611db1565b610e35565b34801561066357600080fd5b5061033f610672366004611db1565b610fd9565b34801561068357600080fd5b5061033f60125481565b34801561069957600080fd5b50600f54610501906001600160a01b031681565b3480156106b957600080fd5b5061031c610ffa565b3480156106ce57600080fd5b5061036d6106dd366004611e46565b611007565b3480156106ee57600080fd5b5061033f6106fd366004611db1565b611015565b34801561070e57600080fd5b5061033f602881565b34801561072357600080fd5b5061033f601481565b34801561073857600080fd5b5061033f600b5481565b34801561074e57600080fd5b5061031c61107e565b34801561076357600080fd5b5061076c61108b565b6040516102fe93929190611f40565b34801561078757600080fd5b506107f6610796366004611db1565b600090815260106020908152604091829020825160a08101845281548152600182015460ff808216151594830185905261010090910416151593810184905260028201546060820181905260039092015460809091018190529193909190565b60408051941515855292151560208501529183015260608201526080016102fe565b34801561082457600080fd5b506104bf610833366004611ead565b611245565b34801561084457600080fd5b5061033f60135481565b34801561085a57600080fd5b506104bf610869366004611db1565b6112d0565b34801561087a57600080fd5b506104bf6115ac565b34801561088f57600080fd5b5061033f61089e366004611f83565b6001600160a01b03918216600090815260016020908152604080832093909416825291909152205490565b3480156108d557600080fd5b506104bf6108e4366004611db1565b611635565b3480156108f557600080fd5b506104bf610904366004611ead565b6116a6565b60606003805461091890611fb6565b80601f016020809104026020016040519081016040528092919081815260200182805461094490611fb6565b80156109915780601f1061096657610100808354040283529160200191610991565b820191906000526020600020905b81548152906001019060200180831161097457829003601f168201915b5050505050905090565b6000336109a98185856116e1565b60019150505b92915050565b6000336109c38582856116f3565b6109ce858585611772565b506001949350505050565b6000806000806000600a546012546013546109f360025490565b601254610a0b906a084595161401484a000000612006565b945094509450945094509091929394565b60078054610a2990611fb6565b80601f0160208091040260200160405190810160405280929190818152602001828054610a5590611fb6565b8015610aa25780601f10610a7757610100808354040283529160200191610aa2565b820191906000526020600020905b815481529060010190602001808311610a8557829003601f168201915b505050505081565b33600090815260208190526040902054811115610b055760405162461bcd60e51b8152602060048201526014602482015273496e73756666696369656e742062616c616e636560601b60448201526064015b60405180910390fd5b610b0f33826117d1565b8060136000828254610b219190612019565b90915550506040518181527f6ef4855b666dcc7884561072e4358b28dfe01feb1b7f4dcebc00e62d50394ac79060200160405180910390a150565b610b64611807565b60008281526010602052604090206001015460ff1615610bc65760405162461bcd60e51b815260206004820152601760248201527f4d61726b657420616c7265616479207265736f6c7665640000000000000000006044820152606401610afc565b60008115610bd75750612ee0610bdc565b50611f405b6040805160a0810182528481526001602080830182815286151584860181815242606087019081526080870189815260008c8152601087528981209851895594518888018054945115156101000261ff00199215159290921661ffff1990951694909417179092555160028701555160039095019490945560118054938401815590527f31ecc21a745e3968a04e9570e4425bc18fa8019c68028196b546d1669c200c689091018690558251918252810183905284917f6d4d544f5a6dcf38d77a232d3ef7358625c74877a1ad954fcb507872e7a05eaf910160405180910390a2505050565b610cca611807565b610cd46000611834565b565b6060601180548060200260200160405190810160405280929190818152602001828054801561099157602002820191906000526020600020905b815481526020019060010190808311610d10575050505050905090565b6000610d3860025490565b1580610d42575047155b80610d4b575081155b15610d5857506000919050565b6000610d6360025490565b610d6d844761202c565b610d779190612043565b905060006064610d8883600261202c565b610d929190612043565b9050610d9e8183612006565b949350505050565b610dae611807565b6001600160a01b038116610e045760405162461bcd60e51b815260206004820152601f60248201527f547265617375727920616464726573732063616e6e6f74206265207a65726f006044820152606401610afc565b600d80546001600160a01b0319166001600160a01b0392909216919091179055565b60606004805461091890611fb6565b610e3d611886565b60008111610e995760405162461bcd60e51b815260206004820152602360248201527f546f6b656e20616d6f756e74206d75737420626520677265617465722074686160448201526206e20360ec1b6064820152608401610afc565b6a084595161401484a00000081601254610eb39190612019565b1115610f015760405162461bcd60e51b815260206004820152601760248201527f576f756c6420657863656564206d617820737570706c790000000000000000006044820152606401610afc565b6000610f0c82611015565b905080341015610f565760405162461bcd60e51b8152602060048201526015602482015274125b9cdd59999a58da595b9d08115512081cd95b9d605a1b6044820152606401610afc565b610f6033836118b0565b610f69826118e6565b610f7282611924565b610f7b3461199a565b610f853482611ab4565b600a54604080518481526020810192909252810182905233907f6155cfd0fd028b0ca77e8495a60cbe563e8bce8611f0aad6fedbdaafc05d44a29060600160405180910390a250610fd66001600655565b50565b60118181548110610fe957600080fd5b600091825260209091200154905081565b60088054610a2990611fb6565b6000336109a9818585611772565b600c54600090819060016110298286612019565b6110339190612006565b61103d9190612043565b600a54909150600090815b838110156110745761105a8284612019565b9250600b548261106a9190612019565b9150600101611048565b5090949350505050565b60098054610a2990611fb6565b60608060606007600860098280546110a290611fb6565b80601f01602080910402602001604051908101604052809291908181526020018280546110ce90611fb6565b801561111b5780601f106110f05761010080835404028352916020019161111b565b820191906000526020600020905b8154815290600101906020018083116110fe57829003601f168201915b5050505050925081805461112e90611fb6565b80601f016020809104026020016040519081016040528092919081815260200182805461115a90611fb6565b80156111a75780601f1061117c576101008083540402835291602001916111a7565b820191906000526020600020905b81548152906001019060200180831161118a57829003601f168201915b505050505091508080546111ba90611fb6565b80601f01602080910402602001604051908101604052809291908181526020018280546111e690611fb6565b80156112335780601f1061120857610100808354040283529160200191611233565b820191906000526020600020905b81548152906001019060200180831161121657829003601f168201915b50505050509050925092509250909192565b61124d611807565b6001600160a01b0381166112ae5760405162461bcd60e51b815260206004820152602260248201527f52657761726420706f6f6c20616464726573732063616e6e6f74206265207a65604482015261726f60f01b6064820152608401610afc565b600e80546001600160a01b0319166001600160a01b0392909216919091179055565b6112d8611886565b600081116113285760405162461bcd60e51b815260206004820152601d60248201527f416d6f756e74206d7573742062652067726561746572207468616e20300000006044820152606401610afc565b3360009081526020819052604090205481111561137e5760405162461bcd60e51b8152602060048201526014602482015273496e73756666696369656e742062616c616e636560601b6044820152606401610afc565b47806113cc5760405162461bcd60e51b815260206004820152601f60248201527f4e6f2045544820617661696c61626c6520666f7220726564656d7074696f6e006044820152606401610afc565b60006113d760025490565b9050600081116114295760405162461bcd60e51b815260206004820152601860248201527f4e6f20746f6b656e7320696e2063697263756c6174696f6e00000000000000006044820152606401610afc565b600081611436858561202c565b6114409190612043565b90506000606461145183600261202c565b61145b9190612043565b905060006114698284612006565b9050600081116114bb5760405162461bcd60e51b815260206004820152601b60248201527f526564656d7074696f6e20616d6f756e7420746f6f20736d616c6c00000000006044820152606401610afc565b8481111561150b5760405162461bcd60e51b815260206004820152601d60248201527f496e73756666696369656e7420636f6e74726163742062616c616e63650000006044820152606401610afc565b61151533876117d1565b85601360008282546115279190612019565b9091555050604051339082156108fc029083906000818181858888f19350505050158015611559573d6000803e3d6000fd5b50604080518781526020810183905290810183905233907fbac106664789786e9447ad88f3982270e2061a36e65e191da1d7707d87e284ff9060600160405180910390a25050505050610fd66001600655565b6115b4611807565b47806115f75760405162461bcd60e51b81526020600482015260126024820152714e6f2045544820746f20776974686472617760701b6044820152606401610afc565b6005546040516001600160a01b039091169082156108fc029083906000818181858888f19350505050158015611631573d6000803e3d6000fd5b5050565b61163d611807565b3060009081526020819052604090205481111561169c5760405162461bcd60e51b815260206004820152601d60248201527f496e73756666696369656e7420636f6e74726163742062616c616e63650000006044820152606401610afc565b610b0f30826117d1565b6116ae611807565b6001600160a01b0381166116d857604051631e4fbdf760e01b815260006004820152602401610afc565b610fd681611834565b6116ee8383836001611af2565b505050565b6001600160a01b0383811660009081526001602090815260408083209386168352929052205460001981101561176c578181101561175d57604051637dc7a0d960e11b81526001600160a01b03841660048201526024810182905260448101839052606401610afc565b61176c84848484036000611af2565b50505050565b6001600160a01b03831661179c57604051634b637e8f60e11b815260006004820152602401610afc565b6001600160a01b0382166117c65760405163ec442f0560e01b815260006004820152602401610afc565b6116ee838383611bc7565b6001600160a01b0382166117fb57604051634b637e8f60e11b815260006004820152602401610afc565b61163182600083611bc7565b6005546001600160a01b03163314610cd45760405163118cdaa760e01b8152336004820152602401610afc565b600580546001600160a01b038381166001600160a01b0319831681179093556040519116919082907f8be0079c531659141344cd1fd0a4f28419497f9722a3daafe3b4186f6b6457e090600090a35050565b6002600654036118a957604051633ee5aeb560e01b815260040160405180910390fd5b6002600655565b6001600160a01b0382166118da5760405163ec442f0560e01b815260006004820152602401610afc565b61163160008383611bc7565b80601260008282546118f89190612019565b9091555050336000908152601460205260408120805483929061191c908490612019565b909155505050565b6000600c54826119349190612043565b905080156116315780600b5461194a919061202c565b600a600082825461195b9190612019565b9091555050600a546040519081527f66cbca4f3c64fecf1dcb9ce094abcf7f68c3450a1d4e3a8e917dd621edb4ebe09060200160405180910390a15050565b600060646119a9601e8461202c565b6119b39190612043565b9050600060646119c460288561202c565b6119ce9190612043565b9050600060646119df600a8661202c565b6119e99190612043565b9050600081836119f98688612006565b611a039190612006565b611a0d9190612006565b9050611a1884611cf1565b611a2183611d31565b611a2a82611d71565b60408051858152602081018590529081018290527f312c5308f42848705a866c73dec11fd0783c2d64aac6a97e94467062ad3f40589060600160405180910390a1600f546040518381526001600160a01b03909116907f2283c47b3ec0fd44314cdf2200785878e11703dcd47ceefd30c6907e0d467d9d9060200160405180910390a25050505050565b8082111561163157336108fc611aca8385612006565b6040518115909202916000818181858888f193505050501580156116ee573d6000803e3d6000fd5b6001600160a01b038416611b1c5760405163e602df0560e01b815260006004820152602401610afc565b6001600160a01b038316611b4657604051634a1406b160e11b815260006004820152602401610afc565b6001600160a01b038085166000908152600160209081526040808320938716835292905220829055801561176c57826001600160a01b0316846001600160a01b03167f8c5be1e5ebec7d5bd14f71427d1e84f3dd0314c0f7b2291e5b200ac8c7c3b92584604051611bb991815260200190565b60405180910390a350505050565b6001600160a01b038316611bf2578060026000828254611be79190612019565b90915550611c649050565b6001600160a01b03831660009081526020819052604090205481811015611c455760405163391434e360e21b81526001600160a01b03851660048201526024810182905260448101839052606401610afc565b6001600160a01b03841660009081526020819052604090209082900390555b6001600160a01b038216611c8057600280548290039055611c9f565b6001600160a01b03821660009081526020819052604090208054820190555b816001600160a01b0316836001600160a01b03167fddf252ad1be2c89b69c2b068fc378daa952ba7f163c4a11628f55a4df523b3ef83604051611ce491815260200190565b60405180910390a3505050565b8015610fd657600d546040516001600160a01b039091169082156108fc029083906000818181858888f19350505050158015611631573d6000803e3d6000fd5b8015610fd657600e546040516001600160a01b039091169082156108fc029083906000818181858888f19350505050158015611631573d6000803e3d6000fd5b8015610fd657600f546040516001600160a01b039091169082156108fc029083906000818181858888f19350505050158015611631573d6000803e3d6000fd5b600060208284031215611dc357600080fd5b5035919050565b6000815180845260005b81811015611df057602081850181015186830182015201611dd4565b506000602082860101526020601f19601f83011685010191505092915050565b602081526000611e236020830184611dca565b9392505050565b80356001600160a01b0381168114611e4157600080fd5b919050565b60008060408385031215611e5957600080fd5b611e6283611e2a565b946020939093013593505050565b600080600060608486031215611e8557600080fd5b611e8e84611e2a565b9250611e9c60208501611e2a565b929592945050506040919091013590565b600060208284031215611ebf57600080fd5b611e2382611e2a565b60008060408385031215611edb57600080fd5b8235915060208301358015158114611ef257600080fd5b809150509250929050565b602080825282518282018190526000918401906040840190835b81811015611f35578351835260209384019390920191600101611f17565b509095945050505050565b606081526000611f536060830186611dca565b8281036020840152611f658186611dca565b90508281036040840152611f798185611dca565b9695505050505050565b60008060408385031215611f9657600080fd5b611f9f83611e2a565b9150611fad60208401611e2a565b90509250929050565b600181811c90821680611fca57607f821691505b602082108103611fea57634e487b7160e01b600052602260045260246000fd5b50919050565b634e487b7160e01b600052601160045260246000fd5b818103818111156109af576109af611ff0565b808201808211156109af576109af611ff0565b80820281158282048414176109af576109af611ff0565b60008261206057634e487b7160e01b600052601260045260246000fd5b50049056fea2646970667358221220a7006abcc23a34b8f2058bec22157ff410f057b3e4f872323df3427e9004244664736f6c634300081c0033a264697066735822122082a23d0992abd8caaff1f212c4963ab9044541d51d124177f688d33ebde01cb664736f6c634300081c0033",
  "linkReferences": {},
  "deployedLinkReferences": {}
}